{
    "_format": "hh-sol-artifact-1",
    "contractName": "WavePortal",
    "sourceName": "contracts/WavePortal.sol",
    "abi": [
        {
            "inputs": [],
            "stateMutability": "nonpayable",
            "type": "constructor"
        },
        {
            "inputs": [
                {
                    "internalType": "uint256",
                    "name": "",
                    "type": "uint256"
                }
            ],
            "name": "addressArray",
            "outputs": [
                {
                    "internalType": "address",
                    "name": "",
                    "type": "address"
                }
            ],
            "stateMutability": "view",
            "type": "function"
        },
        {
            "inputs": [],
            "name": "getArrayAddress",
            "outputs": [
                {
                    "internalType": "address[]",
                    "name": "",
                    "type": "address[]"
                }
            ],
            "stateMutability": "view",
            "type": "function"
        },
        {
            "inputs": [],
            "name": "getTotalWaves",
            "outputs": [
                {
                    "internalType": "uint256",
                    "name": "",
                    "type": "uint256"
                }
            ],
            "stateMutability": "view",
            "type": "function"
        },
        {
            "inputs": [
                {
                    "internalType": "address",
                    "name": "",
                    "type": "address"
                }
            ],
            "name": "mostWaves",
            "outputs": [
                {
                    "internalType": "uint256",
                    "name": "",
                    "type": "uint256"
                }
            ],
            "stateMutability": "view",
            "type": "function"
        },
        {
            "inputs": [],
            "name": "wave",
            "outputs": [],
            "stateMutability": "nonpayable",
            "type": "function"
        }
    ],
    "bytecode": "0x608060405234801561001057600080fd5b506100596040518060400160405280602081526020017f4d7920666972737420636f6e747261637420616e64204920616d20736d61727481525061005e60201b6103331760201c565b6101d8565b6100fa8160405160240161007291906101b6565b6040516020818303038152906040527f41304fac000000000000000000000000000000000000000000000000000000007bffffffffffffffffffffffffffffffffffffffffffffffffffffffff19166020820180517bffffffffffffffffffffffffffffffffffffffffffffffffffffffff83818316178352505050506100fd60201b60201c565b50565b60008151905060006a636f6e736f6c652e6c6f679050602083016000808483855afa5050505050565b600081519050919050565b600082825260208201905092915050565b60005b83811015610160578082015181840152602081019050610145565b60008484015250505050565b6000601f19601f8301169050919050565b600061018882610126565b6101928185610131565b93506101a2818560208601610142565b6101ab8161016c565b840191505092915050565b600060208201905081810360008301526101d0818461017d565b905092915050565b6108ff806101e76000396000f3fe608060405234801561001057600080fd5b50600436106100575760003560e01c80630f96cf341461005c5780632fb2a4f01461008c57806358810bd0146100aa5780636fe15b44146100da5780639a2cdc08146100e4575b600080fd5b61007660048036038101906100719190610568565b610102565b60405161008391906105d6565b60405180910390f35b610094610141565b6040516100a191906106af565b60405180910390f35b6100c460048036038101906100bf91906106fd565b610213565b6040516100d19190610739565b60405180910390f35b6100e261022b565b005b6100ec6102e8565b6040516100f99190610739565b60405180910390f35b6001818154811061011257600080fd5b906000526020600020016000915054906101000a900473ffffffffffffffffffffffffffffffffffffffff1681565b60606101876040518060400160405280600f81526020017f4c656e677468206f6620617272617900000000000000000000000000000000008152506001805490506103cc565b600180548060200260200160405190810160405280929190818152602001828054801561020957602002820191906000526020600020905b8160009054906101000a900473ffffffffffffffffffffffffffffffffffffffff1673ffffffffffffffffffffffffffffffffffffffff16815260200190600101908083116101bf575b5050505050905090565b60026020528060005260406000206000915090505481565b600160008082825461023d9190610783565b925050819055506102836040518060400160405280600d81526020017f257320686176652077617665640000000000000000000000000000000000000081525033610468565b6001339080600181540180825580915050600190039060005260206000200160009091909190916101000a81548173ffffffffffffffffffffffffffffffffffffffff021916908373ffffffffffffffffffffffffffffffffffffffff160217905550565b600061032b6040518060400160405280601781526020017f5765206861766520256420746f74616c207761766573210000000000000000008152506000546103cc565b600054905090565b6103c9816040516024016103479190610847565b6040516020818303038152906040527f41304fac000000000000000000000000000000000000000000000000000000007bffffffffffffffffffffffffffffffffffffffffffffffffffffffff19166020820180517bffffffffffffffffffffffffffffffffffffffffffffffffffffffff8381831617835250505050610504565b50565b61046482826040516024016103e2929190610869565b6040516020818303038152906040527fb60e72cc000000000000000000000000000000000000000000000000000000007bffffffffffffffffffffffffffffffffffffffffffffffffffffffff19166020820180517bffffffffffffffffffffffffffffffffffffffffffffffffffffffff8381831617835250505050610504565b5050565b610500828260405160240161047e929190610899565b6040516020818303038152906040527f319af333000000000000000000000000000000000000000000000000000000007bffffffffffffffffffffffffffffffffffffffffffffffffffffffff19166020820180517bffffffffffffffffffffffffffffffffffffffffffffffffffffffff8381831617835250505050610504565b5050565b60008151905060006a636f6e736f6c652e6c6f679050602083016000808483855afa5050505050565b600080fd5b6000819050919050565b61054581610532565b811461055057600080fd5b50565b6000813590506105628161053c565b92915050565b60006020828403121561057e5761057d61052d565b5b600061058c84828501610553565b91505092915050565b600073ffffffffffffffffffffffffffffffffffffffff82169050919050565b60006105c082610595565b9050919050565b6105d0816105b5565b82525050565b60006020820190506105eb60008301846105c7565b92915050565b600081519050919050565b600082825260208201905092915050565b6000819050602082019050919050565b610626816105b5565b82525050565b6000610638838361061d565b60208301905092915050565b6000602082019050919050565b600061065c826105f1565b61066681856105fc565b93506106718361060d565b8060005b838110156106a2578151610689888261062c565b975061069483610644565b925050600181019050610675565b5085935050505092915050565b600060208201905081810360008301526106c98184610651565b905092915050565b6106da816105b5565b81146106e557600080fd5b50565b6000813590506106f7816106d1565b92915050565b6000602082840312156107135761071261052d565b5b6000610721848285016106e8565b91505092915050565b61073381610532565b82525050565b600060208201905061074e600083018461072a565b92915050565b7f4e487b7100000000000000000000000000000000000000000000000000000000600052601160045260246000fd5b600061078e82610532565b915061079983610532565b92508282019050808211156107b1576107b0610754565b5b92915050565b600081519050919050565b600082825260208201905092915050565b60005b838110156107f15780820151818401526020810190506107d6565b60008484015250505050565b6000601f19601f8301169050919050565b6000610819826107b7565b61082381856107c2565b93506108338185602086016107d3565b61083c816107fd565b840191505092915050565b60006020820190508181036000830152610861818461080e565b905092915050565b60006040820190508181036000830152610883818561080e565b9050610892602083018461072a565b9392505050565b600060408201905081810360008301526108b3818561080e565b90506108c260208301846105c7565b939250505056fea26469706673582212203d09ebf3b409356953316be12400dfe069bdc4112b54597210a5633852950f7964736f6c63430008110033",
    "linkReferences": {},
    "deployedLinkReferences": {}
}